{
  "_format": "hh-sol-artifact-1",
  "contractName": "TaskManager",
  "sourceName": "Contracts/TaskManager.sol",
  "abi": [
    {
      "inputs": [],
      "stateMutability": "nonpayable",
      "type": "constructor"
    },
    {
      "inputs": [
        {
          "internalType": "string",
          "name": "_desc",
          "type": "string"
        }
      ],
      "name": "addTask",
      "outputs": [],
      "stateMutability": "nonpayable",
      "type": "function"
    },
    {
      "inputs": [],
      "name": "getAllTasks",
      "outputs": [
        {
          "components": [
            {
              "internalType": "string",
              "name": "desc",
              "type": "string"
            },
            {
              "internalType": "enum TaskManager.TaskStatus",
              "name": "status",
              "type": "uint8"
            }
          ],
          "internalType": "struct TaskManager.Task[]",
          "name": "",
          "type": "tuple[]"
        }
      ],
      "stateMutability": "view",
      "type": "function"
    },
    {
      "inputs": [
        {
          "internalType": "uint256",
          "name": "id",
          "type": "uint256"
        }
      ],
      "name": "getTask",
      "outputs": [
        {
          "internalType": "string",
          "name": "",
          "type": "string"
        },
        {
          "internalType": "enum TaskManager.TaskStatus",
          "name": "",
          "type": "uint8"
        }
      ],
      "stateMutability": "view",
      "type": "function"
    },
    {
      "inputs": [
        {
          "internalType": "uint256",
          "name": "id",
          "type": "uint256"
        }
      ],
      "name": "markAsFinished",
      "outputs": [],
      "stateMutability": "nonpayable",
      "type": "function"
    },
    {
      "inputs": [
        {
          "internalType": "uint256",
          "name": "",
          "type": "uint256"
        }
      ],
      "name": "tasks",
      "outputs": [
        {
          "internalType": "string",
          "name": "desc",
          "type": "string"
        },
        {
          "internalType": "enum TaskManager.TaskStatus",
          "name": "status",
          "type": "uint8"
        }
      ],
      "stateMutability": "view",
      "type": "function"
    }
  ],
  "bytecode": "0x608060405234801561001057600080fd5b50336000806101000a81548173ffffffffffffffffffffffffffffffffffffffff021916908373ffffffffffffffffffffffffffffffffffffffff160217905550610e24806100606000396000f3fe608060405234801561001057600080fd5b50600436106100575760003560e01c80631d65e77e1461005c578063672385621461008d578063779900b4146100a95780638d977672146100c7578063b6a74cc9146100f8575b600080fd5b6100766004803603810190610071919061092a565b610114565b604051610084929190610b4b565b60405180910390f35b6100a760048036038101906100a291906108e9565b610298565b005b6100b1610417565b6040516100be9190610b29565b60405180910390f35b6100e160048036038101906100dc919061092a565b61058f565b6040516100ef929190610b4b565b60405180910390f35b610112600480360381019061010d919061092a565b610658565b005b60606000600180549050831061015f576040517f08c379a000000000000000000000000000000000000000000000000000000000815260040161015690610b7b565b60405180910390fd5b60018381548110610199577f4e487b7100000000000000000000000000000000000000000000000000000000600052603260045260246000fd5b9060005260206000209060020201600001600184815481106101e4577f4e487b7100000000000000000000000000000000000000000000000000000000600052603260045260246000fd5b906000526020600020906002020160010160009054906101000a900460ff1681805461020f90610cf3565b80601f016020809104026020016040519081016040528092919081815260200182805461023b90610cf3565b80156102885780601f1061025d57610100808354040283529160200191610288565b820191906000526020600020905b81548152906001019060200180831161026b57829003601f168201915b5050505050915091509150915091565b60008054906101000a900473ffffffffffffffffffffffffffffffffffffffff1673ffffffffffffffffffffffffffffffffffffffff163373ffffffffffffffffffffffffffffffffffffffff1614610326576040517f08c379a000000000000000000000000000000000000000000000000000000000815260040161031d90610b9b565b60405180910390fd5b6001604051806040016040528083815260200160006001811115610373577f4e487b7100000000000000000000000000000000000000000000000000000000600052602160045260246000fd5b815250908060018154018082558091505060019003906000526020600020906002020160009091909190915060008201518160000190805190602001906103bb9291906107c9565b5060208201518160010160006101000a81548160ff0219169083600181111561040d577f4e487b7100000000000000000000000000000000000000000000000000000000600052602160045260246000fd5b0217905550505050565b60606001805480602002602001604051908101604052809291908181526020016000905b82821015610586578382906000526020600020906002020160405180604001604052908160008201805461046e90610cf3565b80601f016020809104026020016040519081016040528092919081815260200182805461049a90610cf3565b80156104e75780601f106104bc576101008083540402835291602001916104e7565b820191906000526020600020905b8154815290600101906020018083116104ca57829003601f168201915b505050505081526020016001820160009054906101000a900460ff16600181111561053b577f4e487b7100000000000000000000000000000000000000000000000000000000600052602160045260246000fd5b6001811115610573577f4e487b7100000000000000000000000000000000000000000000000000000000600052602160045260246000fd5b815250508152602001906001019061043b565b50505050905090565b6001818154811061059f57600080fd5b90600052602060002090600202016000915090508060000180546105c290610cf3565b80601f01602080910402602001604051908101604052809291908181526020018280546105ee90610cf3565b801561063b5780601f106106105761010080835404028352916020019161063b565b820191906000526020600020905b81548152906001019060200180831161061e57829003601f168201915b5050505050908060010160009054906101000a900460ff16905082565b60008054906101000a900473ffffffffffffffffffffffffffffffffffffffff1673ffffffffffffffffffffffffffffffffffffffff163373ffffffffffffffffffffffffffffffffffffffff16146106e6576040517f08c379a00000000000000000000000000000000000000000000000000000000081526004016106dd90610b9b565b60405180910390fd5b600180549050811061072d576040517f08c379a000000000000000000000000000000000000000000000000000000000815260040161072490610b7b565b60405180910390fd5b6001808281548110610768577f4e487b7100000000000000000000000000000000000000000000000000000000600052603260045260246000fd5b906000526020600020906002020160010160006101000a81548160ff021916908360018111156107c1577f4e487b7100000000000000000000000000000000000000000000000000000000600052602160045260246000fd5b021790555050565b8280546107d590610cf3565b90600052602060002090601f0160209004810192826107f7576000855561083e565b82601f1061081057805160ff191683800117855561083e565b8280016001018555821561083e579182015b8281111561083d578251825591602001919060010190610822565b5b50905061084b919061084f565b5090565b5b80821115610868576000816000905550600101610850565b5090565b600061087f61087a84610bec565b610bbb565b90508281526020810184848401111561089757600080fd5b6108a2848285610cb1565b509392505050565b600082601f8301126108bb57600080fd5b81356108cb84826020860161086c565b91505092915050565b6000813590506108e381610dd7565b92915050565b6000602082840312156108fb57600080fd5b600082013567ffffffffffffffff81111561091557600080fd5b610921848285016108aa565b91505092915050565b60006020828403121561093c57600080fd5b600061094a848285016108d4565b91505092915050565b600061095f8383610aec565b905092915050565b600061097282610c2c565b61097c8185610c4f565b93508360208202850161098e85610c1c565b8060005b858110156109ca57848403895281516109ab8582610953565b94506109b683610c42565b925060208a01995050600181019050610992565b50829750879550505050505092915050565b6109e581610c9f565b82525050565b6109f481610c9f565b82525050565b6000610a0582610c37565b610a0f8185610c60565b9350610a1f818560208601610cc0565b610a2881610db2565b840191505092915050565b6000610a3e82610c37565b610a488185610c71565b9350610a58818560208601610cc0565b610a6181610db2565b840191505092915050565b6000610a79601683610c71565b91507f4e6f207461736b20686173206265656e206164646564000000000000000000006000830152602082019050919050565b6000610ab9600983610c71565b91507f4e6f74206f776e657200000000000000000000000000000000000000000000006000830152602082019050919050565b60006040830160008301518482036000860152610b0982826109fa565b9150506020830151610b1e60208601826109dc565b508091505092915050565b60006020820190508181036000830152610b438184610967565b905092915050565b60006040820190508181036000830152610b658185610a33565b9050610b7460208301846109eb565b9392505050565b60006020820190508181036000830152610b9481610a6c565b9050919050565b60006020820190508181036000830152610bb481610aac565b9050919050565b6000604051905081810181811067ffffffffffffffff82111715610be257610be1610d83565b5b8060405250919050565b600067ffffffffffffffff821115610c0757610c06610d83565b5b601f19601f8301169050602081019050919050565b6000819050602082019050919050565b600081519050919050565b600081519050919050565b6000602082019050919050565b600082825260208201905092915050565b600082825260208201905092915050565b600082825260208201905092915050565b6000819050610c9082610dc3565b919050565b6000819050919050565b6000610caa82610c82565b9050919050565b82818337600083830152505050565b60005b83811015610cde578082015181840152602081019050610cc3565b83811115610ced576000848401525b50505050565b60006002820490506001821680610d0b57607f821691505b60208210811415610d1f57610d1e610d54565b5b50919050565b7f4e487b7100000000000000000000000000000000000000000000000000000000600052602160045260246000fd5b7f4e487b7100000000000000000000000000000000000000000000000000000000600052602260045260246000fd5b7f4e487b7100000000000000000000000000000000000000000000000000000000600052604160045260246000fd5b6000601f19601f8301169050919050565b60028110610dd457610dd3610d25565b5b50565b610de081610c95565b8114610deb57600080fd5b5056fea264697066735822122097db70f6107061d60f26f5cfc213865f7e708d5d23e3798ac361b96aa2980b2364736f6c63430008000033",
  "linkReferences": {},
  "deployedLinkReferences": {}
}